{
  "_format": "hh-sol-artifact-1",
  "contractName": "vote",
  "sourceName": "contracts/voting.sol",
  "abi": [
    {
      "inputs": [],
      "stateMutability": "nonpayable",
      "type": "constructor"
    },
    {
      "inputs": [
        {
          "internalType": "address",
          "name": "participant",
          "type": "address"
        }
      ],
      "name": "casteVote",
      "outputs": [],
      "stateMutability": "nonpayable",
      "type": "function"
    },
    {
      "inputs": [
        {
          "internalType": "address",
          "name": "",
          "type": "address"
        }
      ],
      "name": "hasParticipated",
      "outputs": [
        {
          "internalType": "bool",
          "name": "",
          "type": "bool"
        }
      ],
      "stateMutability": "view",
      "type": "function"
    },
    {
      "inputs": [
        {
          "internalType": "address",
          "name": "",
          "type": "address"
        }
      ],
      "name": "hasVoted",
      "outputs": [
        {
          "internalType": "bool",
          "name": "",
          "type": "bool"
        }
      ],
      "stateMutability": "view",
      "type": "function"
    },
    {
      "inputs": [],
      "name": "owner",
      "outputs": [
        {
          "internalType": "address",
          "name": "",
          "type": "address"
        }
      ],
      "stateMutability": "view",
      "type": "function"
    },
    {
      "inputs": [
        {
          "internalType": "address",
          "name": "participant",
          "type": "address"
        }
      ],
      "name": "participateInProtocol",
      "outputs": [],
      "stateMutability": "nonpayable",
      "type": "function"
    },
    {
      "inputs": [],
      "name": "trackVotes",
      "outputs": [
        {
          "internalType": "uint256",
          "name": "",
          "type": "uint256"
        }
      ],
      "stateMutability": "view",
      "type": "function"
    },
    {
      "inputs": [],
      "name": "user",
      "outputs": [
        {
          "internalType": "address",
          "name": "",
          "type": "address"
        }
      ],
      "stateMutability": "view",
      "type": "function"
    }
  ],
  "bytecode": "0x608060405234801561001057600080fd5b50336000806101000a81548173ffffffffffffffffffffffffffffffffffffffff021916908373ffffffffffffffffffffffffffffffffffffffff16021790555033600160006101000a81548173ffffffffffffffffffffffffffffffffffffffff021916908373ffffffffffffffffffffffffffffffffffffffff160217905550610bfc806100a16000396000f3fe608060405234801561001057600080fd5b506004361061007d5760003560e01c806354007e031161005b57806354007e03146100ec5780638da5cb5b1461010a578063b4fb3ee314610128578063f3494c4e146101585761007d565b806309eef43e146100825780631849e7c7146100b25780634f8632ba146100ce575b600080fd5b61009c60048036038101906100979190610815565b610174565b6040516100a9919061085d565b60405180910390f35b6100cc60048036038101906100c79190610815565b610194565b005b6100d66103bf565b6040516100e39190610887565b60405180910390f35b6100f46103e5565b60405161010191906108bb565b60405180910390f35b61011261047d565b60405161011f9190610887565b60405180910390f35b610142600480360381019061013d9190610815565b6104a1565b60405161014f919061085d565b60405180910390f35b610172600480360381019061016d9190610815565b6104c1565b005b60046020528060005260406000206000915054906101000a900460ff1681565b3373ffffffffffffffffffffffffffffffffffffffff16600160009054906101000a900473ffffffffffffffffffffffffffffffffffffffff1673ffffffffffffffffffffffffffffffffffffffff1614610224576040517f08c379a000000000000000000000000000000000000000000000000000000000815260040161021b90610933565b60405180910390fd5b600073ffffffffffffffffffffffffffffffffffffffff168173ffffffffffffffffffffffffffffffffffffffff1603610293576040517f08c379a000000000000000000000000000000000000000000000000000000000815260040161028a906109c5565b60405180910390fd5b60036000600160009054906101000a900473ffffffffffffffffffffffffffffffffffffffff1673ffffffffffffffffffffffffffffffffffffffff1673ffffffffffffffffffffffffffffffffffffffff16815260200190815260200160002060009054906101000a900460ff1615610342576040517f08c379a000000000000000000000000000000000000000000000000000000000815260040161033990610a57565b60405180910390fd5b600160036000600160009054906101000a900473ffffffffffffffffffffffffffffffffffffffff1673ffffffffffffffffffffffffffffffffffffffff1673ffffffffffffffffffffffffffffffffffffffff16815260200190815260200160002060006101000a81548160ff02191690831515021790555050565b600160009054906101000a900473ffffffffffffffffffffffffffffffffffffffff1681565b60003373ffffffffffffffffffffffffffffffffffffffff1660008054906101000a900473ffffffffffffffffffffffffffffffffffffffff1673ffffffffffffffffffffffffffffffffffffffff1614610475576040517f08c379a000000000000000000000000000000000000000000000000000000000815260040161046c90610ac3565b60405180910390fd5b600254905090565b60008054906101000a900473ffffffffffffffffffffffffffffffffffffffff1681565b60036020528060005260406000206000915054906101000a900460ff1681565b3373ffffffffffffffffffffffffffffffffffffffff16600160009054906101000a900473ffffffffffffffffffffffffffffffffffffffff1673ffffffffffffffffffffffffffffffffffffffff1614610551576040517f08c379a000000000000000000000000000000000000000000000000000000000815260040161054890610933565b60405180910390fd5b600073ffffffffffffffffffffffffffffffffffffffff168173ffffffffffffffffffffffffffffffffffffffff16036105c0576040517f08c379a00000000000000000000000000000000000000000000000000000000081526004016105b7906109c5565b60405180910390fd5b60036000600160009054906101000a900473ffffffffffffffffffffffffffffffffffffffff1673ffffffffffffffffffffffffffffffffffffffff1673ffffffffffffffffffffffffffffffffffffffff16815260200190815260200160002060009054906101000a900460ff1661066e576040517f08c379a000000000000000000000000000000000000000000000000000000000815260040161066590610a57565b60405180910390fd5b60046000600160009054906101000a900473ffffffffffffffffffffffffffffffffffffffff1673ffffffffffffffffffffffffffffffffffffffff1673ffffffffffffffffffffffffffffffffffffffff16815260200190815260200160002060009054906101000a900460ff161561071d576040517f08c379a000000000000000000000000000000000000000000000000000000000815260040161071490610b2f565b60405180910390fd5b600160046000600160009054906101000a900473ffffffffffffffffffffffffffffffffffffffff1673ffffffffffffffffffffffffffffffffffffffff1673ffffffffffffffffffffffffffffffffffffffff16815260200190815260200160002060006101000a81548160ff021916908315150217905550600260008154809291906107aa90610b7e565b919050555050565b600080fd5b600073ffffffffffffffffffffffffffffffffffffffff82169050919050565b60006107e2826107b7565b9050919050565b6107f2816107d7565b81146107fd57600080fd5b50565b60008135905061080f816107e9565b92915050565b60006020828403121561082b5761082a6107b2565b5b600061083984828501610800565b91505092915050565b60008115159050919050565b61085781610842565b82525050565b6000602082019050610872600083018461084e565b92915050565b610881816107d7565b82525050565b600060208201905061089c6000830184610878565b92915050565b6000819050919050565b6108b5816108a2565b82525050565b60006020820190506108d060008301846108ac565b92915050565b600082825260208201905092915050565b7f6f6e6c7920757365722068617320616363657373000000000000000000000000600082015250565b600061091d6014836108d6565b9150610928826108e7565b602082019050919050565b6000602082019050818103600083015261094c81610910565b9050919050565b7f7061727469636970616e7420616464726573732068617320746f20626520766160008201527f6c69640000000000000000000000000000000000000000000000000000000000602082015250565b60006109af6023836108d6565b91506109ba82610953565b604082019050919050565b600060208201905081810360008301526109de816109a2565b9050919050565b7f7061727469636970616e7420686173206e6f742070617274696369706174656460008201527f2079657400000000000000000000000000000000000000000000000000000000602082015250565b6000610a416024836108d6565b9150610a4c826109e5565b604082019050919050565b60006020820190508181036000830152610a7081610a34565b9050919050565b7f6f6e6c79206f776e657220686173206163636573730000000000000000000000600082015250565b6000610aad6015836108d6565b9150610ab882610a77565b602082019050919050565b60006020820190508181036000830152610adc81610aa0565b9050919050565b7f766f74696e67206e6f7420646f6e652079657400000000000000000000000000600082015250565b6000610b196013836108d6565b9150610b2482610ae3565b602082019050919050565b60006020820190508181036000830152610b4881610b0c565b9050919050565b7f4e487b7100000000000000000000000000000000000000000000000000000000600052601160045260246000fd5b6000610b89826108a2565b91507fffffffffffffffffffffffffffffffffffffffffffffffffffffffffffffffff8203610bbb57610bba610b4f565b5b60018201905091905056fea264697066735822122033f8557c9e9184e7ed4c8e89a5c7778f03ae72e98fdd47ef8db5e904c13d3c6664736f6c63430008180033",
  "linkReferences": {},
  "deployedLinkReferences": {}
}