{
  "_format": "hh-sol-artifact-1",
  "contractName": "multisigWallet",
  "sourceName": "contracts/multisig.sol",
  "abi": [
    {
      "inputs": [
        {
          "internalType": "address[]",
          "name": "_owners",
          "type": "address[]"
        },
        {
          "internalType": "uint256",
          "name": "_requiredConfirmations",
          "type": "uint256"
        }
      ],
      "stateMutability": "nonpayable",
      "type": "constructor"
    },
    {
      "anonymous": false,
      "inputs": [
        {
          "indexed": true,
          "internalType": "address",
          "name": "sender",
          "type": "address"
        },
        {
          "indexed": false,
          "internalType": "uint256",
          "name": "value",
          "type": "uint256"
        }
      ],
      "name": "Deposit",
      "type": "event"
    },
    {
      "inputs": [
        {
          "internalType": "uint256",
          "name": "transactionId",
          "type": "uint256"
        }
      ],
      "name": "confirmTransactions",
      "outputs": [],
      "stateMutability": "nonpayable",
      "type": "function"
    },
    {
      "inputs": [
        {
          "internalType": "uint256",
          "name": "",
          "type": "uint256"
        },
        {
          "internalType": "address",
          "name": "",
          "type": "address"
        }
      ],
      "name": "confirmations",
      "outputs": [
        {
          "internalType": "bool",
          "name": "",
          "type": "bool"
        }
      ],
      "stateMutability": "view",
      "type": "function"
    },
    {
      "inputs": [
        {
          "internalType": "uint256",
          "name": "transactionId",
          "type": "uint256"
        }
      ],
      "name": "executeTransaction",
      "outputs": [],
      "stateMutability": "nonpayable",
      "type": "function"
    },
    {
      "inputs": [
        {
          "internalType": "address",
          "name": "",
          "type": "address"
        }
      ],
      "name": "isOwner",
      "outputs": [
        {
          "internalType": "bool",
          "name": "",
          "type": "bool"
        }
      ],
      "stateMutability": "view",
      "type": "function"
    },
    {
      "inputs": [
        {
          "internalType": "uint256",
          "name": "",
          "type": "uint256"
        }
      ],
      "name": "owners",
      "outputs": [
        {
          "internalType": "address",
          "name": "",
          "type": "address"
        }
      ],
      "stateMutability": "view",
      "type": "function"
    },
    {
      "inputs": [],
      "name": "requiredConfirmations",
      "outputs": [
        {
          "internalType": "uint256",
          "name": "",
          "type": "uint256"
        }
      ],
      "stateMutability": "view",
      "type": "function"
    },
    {
      "inputs": [
        {
          "internalType": "address payable",
          "name": "_to",
          "type": "address"
        },
        {
          "internalType": "uint256",
          "name": "_value",
          "type": "uint256"
        },
        {
          "internalType": "bytes",
          "name": "_data",
          "type": "bytes"
        }
      ],
      "name": "submit_transaction",
      "outputs": [],
      "stateMutability": "nonpayable",
      "type": "function"
    },
    {
      "inputs": [],
      "name": "transactionCount",
      "outputs": [
        {
          "internalType": "uint256",
          "name": "",
          "type": "uint256"
        }
      ],
      "stateMutability": "view",
      "type": "function"
    },
    {
      "inputs": [
        {
          "internalType": "uint256",
          "name": "",
          "type": "uint256"
        }
      ],
      "name": "transactions",
      "outputs": [
        {
          "internalType": "address payable",
          "name": "to",
          "type": "address"
        },
        {
          "internalType": "uint256",
          "name": "value",
          "type": "uint256"
        },
        {
          "internalType": "bytes",
          "name": "data",
          "type": "bytes"
        },
        {
          "internalType": "bool",
          "name": "isExecuted",
          "type": "bool"
        },
        {
          "internalType": "uint256",
          "name": "confirmationCount",
          "type": "uint256"
        }
      ],
      "stateMutability": "view",
      "type": "function"
    },
    {
      "stateMutability": "payable",
      "type": "receive"
    }
  ],
  "bytecode": "0x60806040523480156200001157600080fd5b5060405162001a1c38038062001a1c8339818101604052810190620000379190620004ce565b60008251116200007e576040517f08c379a0000000000000000000000000000000000000000000000000000000008152600401620000759062000595565b60405180910390fd5b60008111801562000090575081518111155b6200009a57600080fd5b60005b825181101562000295576000838281518110620000bf57620000be620005b7565b5b60200260200101519050600073ffffffffffffffffffffffffffffffffffffffff168173ffffffffffffffffffffffffffffffffffffffff16036200013b576040517f08c379a0000000000000000000000000000000000000000000000000000000008152600401620001329062000636565b60405180910390fd5b600260008273ffffffffffffffffffffffffffffffffffffffff1673ffffffffffffffffffffffffffffffffffffffff16815260200190815260200160002060009054906101000a900460ff1615620001cb576040517f08c379a0000000000000000000000000000000000000000000000000000000008152600401620001c290620006a8565b60405180910390fd5b6001600260008373ffffffffffffffffffffffffffffffffffffffff1673ffffffffffffffffffffffffffffffffffffffff16815260200190815260200160002060006101000a81548160ff0219169083151502179055506000819080600181540180825580915050600190039060005260206000200160009091909190916101000a81548173ffffffffffffffffffffffffffffffffffffffff021916908373ffffffffffffffffffffffffffffffffffffffff1602179055505080806001019150506200009d565b50806001819055505050620006ca565b6000604051905090565b600080fd5b600080fd5b600080fd5b6000601f19601f8301169050919050565b7f4e487b7100000000000000000000000000000000000000000000000000000000600052604160045260246000fd5b6200030982620002be565b810181811067ffffffffffffffff821117156200032b576200032a620002cf565b5b80604052505050565b600062000340620002a5565b90506200034e8282620002fe565b919050565b600067ffffffffffffffff821115620003715762000370620002cf565b5b602082029050602081019050919050565b600080fd5b600073ffffffffffffffffffffffffffffffffffffffff82169050919050565b6000620003b48262000387565b9050919050565b620003c681620003a7565b8114620003d257600080fd5b50565b600081519050620003e681620003bb565b92915050565b600062000403620003fd8462000353565b62000334565b9050808382526020820190506020840283018581111562000429576200042862000382565b5b835b81811015620004565780620004418882620003d5565b8452602084019350506020810190506200042b565b5050509392505050565b600082601f830112620004785762000477620002b9565b5b81516200048a848260208601620003ec565b91505092915050565b6000819050919050565b620004a88162000493565b8114620004b457600080fd5b50565b600081519050620004c8816200049d565b92915050565b60008060408385031215620004e857620004e7620002af565b5b600083015167ffffffffffffffff811115620005095762000508620002b4565b5b620005178582860162000460565b92505060206200052a85828601620004b7565b9150509250929050565b600082825260208201905092915050565b7f6f776e6572732072657175697265640000000000000000000000000000000000600082015250565b60006200057d600f8362000534565b91506200058a8262000545565b602082019050919050565b60006020820190508181036000830152620005b0816200056e565b9050919050565b7f4e487b7100000000000000000000000000000000000000000000000000000000600052603260045260246000fd5b7f616464726573732068617320746f2062652076616c6964000000000000000000600082015250565b60006200061e60178362000534565b91506200062b82620005e6565b602082019050919050565b6000602082019050818103600083015262000651816200060f565b9050919050565b7f4f776e6572206e6f7420756e6971756500000000000000000000000000000000600082015250565b60006200069060108362000534565b91506200069d8262000658565b602082019050919050565b60006020820190508181036000830152620006c38162000681565b9050919050565b61134280620006da6000396000f3fe60806040526004361061008a5760003560e01c806382e717f71161005957806382e717f7146101c45780639ace38c2146101ef578063b77bf60014610230578063c54371a71461025b578063ee22610b14610284576100df565b8063025e7c27146100e45780632f54bf6e146101215780633411c81c1461015e578063435853811461019b576100df565b366100df573373ffffffffffffffffffffffffffffffffffffffff167fe1fffcc4923d04b559f4d29a8bfc6cda04eb5b0d3c460751c2402c5c5cc9109c346040516100d5919061092f565b60405180910390a2005b600080fd5b3480156100f057600080fd5b5061010b6004803603810190610106919061098a565b6102ad565b60405161011891906109f8565b60405180910390f35b34801561012d57600080fd5b5061014860048036038101906101439190610a3f565b6102ec565b6040516101559190610a87565b60405180910390f35b34801561016a57600080fd5b5061018560048036038101906101809190610aa2565b61030c565b6040516101929190610a87565b60405180910390f35b3480156101a757600080fd5b506101c260048036038101906101bd919061098a565b61033b565b005b3480156101d057600080fd5b506101d9610488565b6040516101e6919061092f565b60405180910390f35b3480156101fb57600080fd5b506102166004803603810190610211919061098a565b61048e565b604051610227959493929190610b93565b60405180910390f35b34801561023c57600080fd5b50610245610579565b604051610252919061092f565b60405180910390f35b34801561026757600080fd5b50610282600480360381019061027d9190610d4e565b61057f565b005b34801561029057600080fd5b506102ab60048036038101906102a6919061098a565b61071d565b005b600081815481106102bd57600080fd5b906000526020600020016000915054906101000a900473ffffffffffffffffffffffffffffffffffffffff1681565b60026020528060005260406000206000915054906101000a900460ff1681565b60036020528160005260406000206020528060005260406000206000915091509054906101000a900460ff1681565b600260003373ffffffffffffffffffffffffffffffffffffffff1673ffffffffffffffffffffffffffffffffffffffff16815260200190815260200160002060009054906101000a900460ff166103c7576040517f08c379a00000000000000000000000000000000000000000000000000000000081526004016103be90610e1a565b60405180910390fd5b60016003600083815260200190815260200160002060003373ffffffffffffffffffffffffffffffffffffffff1673ffffffffffffffffffffffffffffffffffffffff16815260200190815260200160002060006101000a81548160ff02191690831515021790555060056000828152602001908152602001600020600401600081548092919061045790610e69565b9190505550600154600560008381526020019081526020016000206004015410610485576104848161071d565b5b50565b60015481565b60056020528060005260406000206000915090508060000160009054906101000a900473ffffffffffffffffffffffffffffffffffffffff16908060010154908060020180546104dd90610ee0565b80601f016020809104026020016040519081016040528092919081815260200182805461050990610ee0565b80156105565780601f1061052b57610100808354040283529160200191610556565b820191906000526020600020905b81548152906001019060200180831161053957829003601f168201915b5050505050908060030160009054906101000a900460ff16908060040154905085565b60045481565b600260003373ffffffffffffffffffffffffffffffffffffffff1673ffffffffffffffffffffffffffffffffffffffff16815260200190815260200160002060009054906101000a900460ff1661060b576040517f08c379a000000000000000000000000000000000000000000000000000000000815260040161060290610e1a565b60405180910390fd5b60006004600081548092919061062090610e69565b9190505590506040518060a001604052808573ffffffffffffffffffffffffffffffffffffffff16815260200184815260200183815260200160001515815260200160008152506005600083815260200190815260200160002060008201518160000160006101000a81548173ffffffffffffffffffffffffffffffffffffffff021916908373ffffffffffffffffffffffffffffffffffffffff1602179055506020820151816001015560408201518160020190816106e091906110bd565b5060608201518160030160006101000a81548160ff021916908315150217905550608082015181600401559050506107178161033b565b50505050565b600260003373ffffffffffffffffffffffffffffffffffffffff1673ffffffffffffffffffffffffffffffffffffffff16815260200190815260200160002060009054906101000a900460ff166107a9576040517f08c379a00000000000000000000000000000000000000000000000000000000081526004016107a090610e1a565b60405180910390fd5b60015460056000838152602001908152602001600020600401541015610804576040517f08c379a00000000000000000000000000000000000000000000000000000000081526004016107fb906111db565b60405180910390fd5b600060056000838152602001908152602001600020905060018160030160006101000a81548160ff02191690831515021790555060008160000160009054906101000a900473ffffffffffffffffffffffffffffffffffffffff1673ffffffffffffffffffffffffffffffffffffffff1682600101548360020160405161088b9190611289565b60006040518083038185875af1925050503d80600081146108c8576040519150601f19603f3d011682016040523d82523d6000602084013e6108cd565b606091505b5050905080610911576040517f08c379a0000000000000000000000000000000000000000000000000000000008152600401610908906112ec565b60405180910390fd5b505050565b6000819050919050565b61092981610916565b82525050565b60006020820190506109446000830184610920565b92915050565b6000604051905090565b600080fd5b600080fd5b61096781610916565b811461097257600080fd5b50565b6000813590506109848161095e565b92915050565b6000602082840312156109a05761099f610954565b5b60006109ae84828501610975565b91505092915050565b600073ffffffffffffffffffffffffffffffffffffffff82169050919050565b60006109e2826109b7565b9050919050565b6109f2816109d7565b82525050565b6000602082019050610a0d60008301846109e9565b92915050565b610a1c816109d7565b8114610a2757600080fd5b50565b600081359050610a3981610a13565b92915050565b600060208284031215610a5557610a54610954565b5b6000610a6384828501610a2a565b91505092915050565b60008115159050919050565b610a8181610a6c565b82525050565b6000602082019050610a9c6000830184610a78565b92915050565b60008060408385031215610ab957610ab8610954565b5b6000610ac785828601610975565b9250506020610ad885828601610a2a565b9150509250929050565b6000610aed826109b7565b9050919050565b610afd81610ae2565b82525050565b600081519050919050565b600082825260208201905092915050565b60005b83811015610b3d578082015181840152602081019050610b22565b60008484015250505050565b6000601f19601f8301169050919050565b6000610b6582610b03565b610b6f8185610b0e565b9350610b7f818560208601610b1f565b610b8881610b49565b840191505092915050565b600060a082019050610ba86000830188610af4565b610bb56020830187610920565b8181036040830152610bc78186610b5a565b9050610bd66060830185610a78565b610be36080830184610920565b9695505050505050565b610bf681610ae2565b8114610c0157600080fd5b50565b600081359050610c1381610bed565b92915050565b600080fd5b600080fd5b7f4e487b7100000000000000000000000000000000000000000000000000000000600052604160045260246000fd5b610c5b82610b49565b810181811067ffffffffffffffff82111715610c7a57610c79610c23565b5b80604052505050565b6000610c8d61094a565b9050610c998282610c52565b919050565b600067ffffffffffffffff821115610cb957610cb8610c23565b5b610cc282610b49565b9050602081019050919050565b82818337600083830152505050565b6000610cf1610cec84610c9e565b610c83565b905082815260208101848484011115610d0d57610d0c610c1e565b5b610d18848285610ccf565b509392505050565b600082601f830112610d3557610d34610c19565b5b8135610d45848260208601610cde565b91505092915050565b600080600060608486031215610d6757610d66610954565b5b6000610d7586828701610c04565b9350506020610d8686828701610975565b925050604084013567ffffffffffffffff811115610da757610da6610959565b5b610db386828701610d20565b9150509250925092565b600082825260208201905092915050565b7f6f6e6c79206f776e65722063616e206163636573730000000000000000000000600082015250565b6000610e04601583610dbd565b9150610e0f82610dce565b602082019050919050565b60006020820190508181036000830152610e3381610df7565b9050919050565b7f4e487b7100000000000000000000000000000000000000000000000000000000600052601160045260246000fd5b6000610e7482610916565b91507fffffffffffffffffffffffffffffffffffffffffffffffffffffffffffffffff8203610ea657610ea5610e3a565b5b600182019050919050565b7f4e487b7100000000000000000000000000000000000000000000000000000000600052602260045260246000fd5b60006002820490506001821680610ef857607f821691505b602082108103610f0b57610f0a610eb1565b5b50919050565b60008190508160005260206000209050919050565b60006020601f8301049050919050565b600082821b905092915050565b600060088302610f737fffffffffffffffffffffffffffffffffffffffffffffffffffffffffffffffff82610f36565b610f7d8683610f36565b95508019841693508086168417925050509392505050565b6000819050919050565b6000610fba610fb5610fb084610916565b610f95565b610916565b9050919050565b6000819050919050565b610fd483610f9f565b610fe8610fe082610fc1565b848454610f43565b825550505050565b600090565b610ffd610ff0565b611008818484610fcb565b505050565b5b8181101561102c57611021600082610ff5565b60018101905061100e565b5050565b601f8211156110715761104281610f11565b61104b84610f26565b8101602085101561105a578190505b61106e61106685610f26565b83018261100d565b50505b505050565b600082821c905092915050565b600061109460001984600802611076565b1980831691505092915050565b60006110ad8383611083565b9150826002028217905092915050565b6110c682610b03565b67ffffffffffffffff8111156110df576110de610c23565b5b6110e98254610ee0565b6110f4828285611030565b600060209050601f8311600181146111275760008415611115578287015190505b61111f85826110a1565b865550611187565b601f19841661113586610f11565b60005b8281101561115d57848901518255600182019150602085019450602081019050611138565b8683101561117a5784890151611176601f891682611083565b8355505b6001600288020188555050505b505050505050565b7f4e6f7420656e6f75676820636f6e6669726d6174696f6e730000000000000000600082015250565b60006111c5601883610dbd565b91506111d08261118f565b602082019050919050565b600060208201905081810360008301526111f4816111b8565b9050919050565b600081905092915050565b6000815461121381610ee0565b61121d81866111fb565b94506001821660008114611238576001811461124d57611280565b60ff1983168652811515820286019350611280565b61125685610f11565b60005b8381101561127857815481890152600182019150602081019050611259565b838801955050505b50505092915050565b60006112958284611206565b915081905092915050565b7f5472616e73616374696f6e20657865637574696f6e206661696c656400000000600082015250565b60006112d6601c83610dbd565b91506112e1826112a0565b602082019050919050565b60006020820190508181036000830152611305816112c9565b905091905056fea2646970667358221220aff9db456439f82e6e4f36962e67a0de68ee47281c74469973c7119cb99b518564736f6c63430008180033",
  "linkReferences": {},
  "deployedLinkReferences": {}
}